{
  "contractName": "SimpleStorage",
  "abi": [
    {
      "inputs": [
        {
          "internalType": "uint256",
          "name": "",
          "type": "uint256"
        }
      ],
      "name": "todos",
      "outputs": [
        {
          "internalType": "string",
          "name": "text",
          "type": "string"
        },
        {
          "internalType": "bool",
          "name": "compleated",
          "type": "bool"
        }
      ],
      "stateMutability": "view",
      "type": "function",
      "constant": true
    },
    {
      "inputs": [
        {
          "internalType": "string",
          "name": "_text",
          "type": "string"
        }
      ],
      "name": "create",
      "outputs": [],
      "stateMutability": "nonpayable",
      "type": "function"
    },
    {
      "inputs": [
        {
          "internalType": "uint256",
          "name": "_index",
          "type": "uint256"
        },
        {
          "internalType": "string",
          "name": "_text",
          "type": "string"
        }
      ],
      "name": "updateText",
      "outputs": [],
      "stateMutability": "nonpayable",
      "type": "function"
    },
    {
      "inputs": [
        {
          "internalType": "uint256",
          "name": "_index",
          "type": "uint256"
        }
      ],
      "name": "get",
      "outputs": [
        {
          "internalType": "string",
          "name": "",
          "type": "string"
        },
        {
          "internalType": "bool",
          "name": "",
          "type": "bool"
        }
      ],
      "stateMutability": "view",
      "type": "function",
      "constant": true
    },
    {
      "inputs": [
        {
          "internalType": "uint256",
          "name": "_index",
          "type": "uint256"
        }
      ],
      "name": "toggleComplete",
      "outputs": [],
      "stateMutability": "nonpayable",
      "type": "function"
    },
    {
      "inputs": [],
      "name": "readLength",
      "outputs": [
        {
          "internalType": "uint256",
          "name": "",
          "type": "uint256"
        }
      ],
      "stateMutability": "view",
      "type": "function",
      "constant": true
    },
    {
      "inputs": [],
      "name": "read",
      "outputs": [
        {
          "internalType": "uint256",
          "name": "",
          "type": "uint256"
        }
      ],
      "stateMutability": "view",
      "type": "function",
      "constant": true
    },
    {
      "inputs": [
        {
          "internalType": "uint256",
          "name": "newValue",
          "type": "uint256"
        }
      ],
      "name": "write",
      "outputs": [],
      "stateMutability": "nonpayable",
      "type": "function"
    }
  ],
  "bytecode": "0x608060405234801561001057600080fd5b50610bae806100206000396000f3fe608060405234801561001057600080fd5b50600436106100885760003560e01c80639507d39a1161005b5780639507d39a14610101578063b6a46b3b14610132578063bc8bc2b41461014e578063cd1116141461017f57610088565b80630951e5bd1461008d5780632f048afa146100a95780633d19002a146100c557806357de26a4146100e3575b600080fd5b6100a760048036038101906100a2919061051d565b61019b565b005b6100c360048036038101906100be919061051d565b610222565b005b6100cd61022c565b6040516100da9190610559565b60405180910390f35b6100eb610239565b6040516100f89190610559565b60405180910390f35b61011b6004803603810190610116919061051d565b610242565b60405161012992919061061f565b60405180910390f35b61014c600480360381019061014791906106b4565b610317565b005b6101686004803603810190610163919061051d565b6103da565b60405161017692919061061f565b60405180910390f35b61019960048036038101906101949190610701565b6104a3565b005b6000600182815481106101b1576101b0610761565b5b90600052602060002090600202019050600015158160010160009054906101000a900460ff161515036102005760018160010160006101000a81548160ff02191690831515021790555061021e565b60008160010160006101000a81548160ff0219169083151502179055505b5050565b8060008190555050565b6000600180549050905090565b60008054905090565b60606000806001848154811061025b5761025a610761565b5b90600052602060002090600202019050806000018160010160009054906101000a900460ff1681805461028d906107bf565b80601f01602080910402602001604051908101604052809291908181526020018280546102b9906107bf565b80156103065780601f106102db57610100808354040283529160200191610306565b820191906000526020600020905b8154815290600101906020018083116102e957829003601f168201915b505050505091509250925050915091565b6001604051806040016040528084848080601f016020809104026020016040519081016040528093929190818152602001838380828437600081840152601f19601f82011690508083019250505050505050815260200160001515815250908060018154018082558091505060019003906000526020600020906002020160009091909190915060008201518160000190816103b391906109cb565b5060208201518160010160006101000a81548160ff02191690831515021790555050505050565b600181815481106103ea57600080fd5b906000526020600020906002020160009150905080600001805461040d906107bf565b80601f0160208091040260200160405190810160405280929190818152602001828054610439906107bf565b80156104865780601f1061045b57610100808354040283529160200191610486565b820191906000526020600020905b81548152906001019060200180831161046957829003601f168201915b5050505050908060010160009054906101000a900460ff16905082565b8181600185815481106104b9576104b8610761565b5b906000526020600020906002020160000191826104d7929190610aa8565b50505050565b600080fd5b600080fd5b6000819050919050565b6104fa816104e7565b811461050557600080fd5b50565b600081359050610517816104f1565b92915050565b600060208284031215610533576105326104dd565b5b600061054184828501610508565b91505092915050565b610553816104e7565b82525050565b600060208201905061056e600083018461054a565b92915050565b600081519050919050565b600082825260208201905092915050565b60005b838110156105ae578082015181840152602081019050610593565b60008484015250505050565b6000601f19601f8301169050919050565b60006105d682610574565b6105e0818561057f565b93506105f0818560208601610590565b6105f9816105ba565b840191505092915050565b60008115159050919050565b61061981610604565b82525050565b6000604082019050818103600083015261063981856105cb565b90506106486020830184610610565b9392505050565b600080fd5b600080fd5b600080fd5b60008083601f8401126106745761067361064f565b5b8235905067ffffffffffffffff81111561069157610690610654565b5b6020830191508360018202830111156106ad576106ac610659565b5b9250929050565b600080602083850312156106cb576106ca6104dd565b5b600083013567ffffffffffffffff8111156106e9576106e86104e2565b5b6106f58582860161065e565b92509250509250929050565b60008060006040848603121561071a576107196104dd565b5b600061072886828701610508565b935050602084013567ffffffffffffffff811115610749576107486104e2565b5b6107558682870161065e565b92509250509250925092565b7f4e487b7100000000000000000000000000000000000000000000000000000000600052603260045260246000fd5b7f4e487b7100000000000000000000000000000000000000000000000000000000600052602260045260246000fd5b600060028204905060018216806107d757607f821691505b6020821081036107ea576107e9610790565b5b50919050565b7f4e487b7100000000000000000000000000000000000000000000000000000000600052604160045260246000fd5b60008190508160005260206000209050919050565b60006020601f8301049050919050565b600082821b905092915050565b6000600883026108817fffffffffffffffffffffffffffffffffffffffffffffffffffffffffffffffff82610844565b61088b8683610844565b95508019841693508086168417925050509392505050565b6000819050919050565b60006108c86108c36108be846104e7565b6108a3565b6104e7565b9050919050565b6000819050919050565b6108e2836108ad565b6108f66108ee826108cf565b848454610851565b825550505050565b600090565b61090b6108fe565b6109168184846108d9565b505050565b5b8181101561093a5761092f600082610903565b60018101905061091c565b5050565b601f82111561097f576109508161081f565b61095984610834565b81016020851015610968578190505b61097c61097485610834565b83018261091b565b50505b505050565b600082821c905092915050565b60006109a260001984600802610984565b1980831691505092915050565b60006109bb8383610991565b9150826002028217905092915050565b6109d482610574565b67ffffffffffffffff8111156109ed576109ec6107f0565b5b6109f782546107bf565b610a0282828561093e565b600060209050601f831160018114610a355760008415610a23578287015190505b610a2d85826109af565b865550610a95565b601f198416610a438661081f565b60005b82811015610a6b57848901518255600182019150602085019450602081019050610a46565b86831015610a885784890151610a84601f891682610991565b8355505b6001600288020188555050505b505050505050565b600082905092915050565b610ab28383610a9d565b67ffffffffffffffff811115610acb57610aca6107f0565b5b610ad582546107bf565b610ae082828561093e565b6000601f831160018114610b0f5760008415610afd578287013590505b610b0785826109af565b865550610b6f565b601f198416610b1d8661081f565b60005b82811015610b4557848901358255600182019150602085019450602081019050610b20565b86831015610b625784890135610b5e601f891682610991565b8355505b6001600288020188555050505b5050505050505056fea26469706673582212202ac263a91455510835a0f3e8f5f42a745be5b720b6c392c636983791419c4f2c64736f6c63430008110033",
  "immutableReferences": {},
  "source": "// SPDX-License-Identifier: MIT\npragma solidity >=0.4.22 <0.9.0;\n\ncontract SimpleStorage {\n  uint256 value;\nstruct Todo{\n        string text;\n        bool compleated;\n    }\n    \n    Todo[] public todos;\n\n    function create(string calldata _text) external {\n        todos.push(Todo({\n            text:_text,\n            compleated:false\n        }));\n    }\n    function updateText(uint _index, string calldata _text) external {\n        todos[_index].text = _text;\n    }\n    function get(uint _index) external view returns(string memory,bool){\n        Todo storage todo = todos[_index];\n        return (todo.text,todo.compleated);\n    }\n    function toggleComplete(uint _index) external {\n        Todo storage todo = todos[_index];\n        if (todo.compleated==false){\n            todo.compleated=true;\n        }else{\n            todo.compleated = false;\n        }\n    }\n\n\t  function readLength() external view returns(uint){\n        return todos.length;\n    }\n\n\t\n\n\n  function read() public view returns (uint256) {\n    return value;\n  }\n\n  function write(uint256 newValue) public {\n    value = newValue;\n  }\n}\n",
  "sourcePath": "/home/anish/Documents/experiments/blockchain/todo/truffle/contracts/SimpleStorage.sol",
  "compiler": {
    "name": "solc",
    "version": "0.8.17+commit.8df45f5f.Emscripten.clang"
  },
  "schemaVersion": "3.4.10",
  "updatedAt": "2022-12-04T10:18:00.065Z",
  "networkType": "ethereum",
  "devdoc": {
    "kind": "dev",
    "methods": {},
    "version": 1
  },
  "userdoc": {
    "kind": "user",
    "methods": {},
    "version": 1
  }
}