{
  "contractName": "TodoList",
  "abi": [
    {
      "inputs": [
        {
          "internalType": "uint256",
          "name": "",
          "type": "uint256"
        }
      ],
      "name": "todos",
      "outputs": [
        {
          "internalType": "string",
          "name": "text",
          "type": "string"
        },
        {
          "internalType": "bool",
          "name": "compleated",
          "type": "bool"
        }
      ],
      "stateMutability": "view",
      "type": "function"
    },
    {
      "inputs": [
        {
          "internalType": "string",
          "name": "_text",
          "type": "string"
        }
      ],
      "name": "create",
      "outputs": [],
      "stateMutability": "nonpayable",
      "type": "function"
    },
    {
      "inputs": [
        {
          "internalType": "uint256",
          "name": "_index",
          "type": "uint256"
        },
        {
          "internalType": "string",
          "name": "_text",
          "type": "string"
        }
      ],
      "name": "updateText",
      "outputs": [],
      "stateMutability": "nonpayable",
      "type": "function"
    },
    {
      "inputs": [
        {
          "internalType": "uint256",
          "name": "_index",
          "type": "uint256"
        }
      ],
      "name": "get",
      "outputs": [
        {
          "internalType": "string",
          "name": "",
          "type": "string"
        },
        {
          "internalType": "bool",
          "name": "",
          "type": "bool"
        }
      ],
      "stateMutability": "view",
      "type": "function"
    },
    {
      "inputs": [
        {
          "internalType": "uint256",
          "name": "_index",
          "type": "uint256"
        }
      ],
      "name": "toggleComplete",
      "outputs": [],
      "stateMutability": "nonpayable",
      "type": "function"
    }
  ],
  "bytecode": "0x608060405234801561001057600080fd5b50610897806100206000396000f3fe608060405234801561001057600080fd5b50600436106100575760003560e01c80630951e5bd1461005c5780639507d39a14610078578063b6a46b3b146100a9578063bc8bc2b4146100c5578063cd111614146100f6575b600080fd5b6100766004803603810190610071919061067a565b610112565b005b610092600480360381019061008d919061067a565b6101bf565b6040516100a0929190610743565b60405180910390f35b6100c360048036038101906100be9190610635565b6102ba565b005b6100df60048036038101906100da919061067a565b610384565b6040516100ed929190610743565b60405180910390f35b610110600480360381019061010b91906106a3565b61044d565b005b600080828154811061014d577f4e487b7100000000000000000000000000000000000000000000000000000000600052603260045260246000fd5b90600052602060002090600202019050600015158160010160009054906101000a900460ff161515141561019d5760018160010160006101000a81548160ff0219169083151502179055506101bb565b60008160010160006101000a81548160ff0219169083151502179055505b5050565b6060600080600084815481106101fe577f4e487b7100000000000000000000000000000000000000000000000000000000600052603260045260246000fd5b90600052602060002090600202019050806000018160010160009054906101000a900460ff16818054610230906107d8565b80601f016020809104026020016040519081016040528092919081815260200182805461025c906107d8565b80156102a95780601f1061027e576101008083540402835291602001916102a9565b820191906000526020600020905b81548152906001019060200180831161028c57829003601f168201915b505050505091509250925050915091565b6000604051806040016040528084848080601f016020809104026020016040519081016040528093929190818152602001838380828437600081840152601f19601f820116905080830192505050505050508152602001600015158152509080600181540180825580915050600190039060005260206000209060020201600090919091909150600082015181600001908051906020019061035d9291906104ad565b5060208201518160010160006101000a81548160ff02191690831515021790555050505050565b6000818154811061039457600080fd5b90600052602060002090600202016000915090508060000180546103b7906107d8565b80601f01602080910402602001604051908101604052809291908181526020018280546103e3906107d8565b80156104305780601f1061040557610100808354040283529160200191610430565b820191906000526020600020905b81548152906001019060200180831161041357829003601f168201915b5050505050908060010160009054906101000a900460ff16905082565b818160008581548110610489577f4e487b7100000000000000000000000000000000000000000000000000000000600052603260045260246000fd5b906000526020600020906002020160000191906104a7929190610533565b50505050565b8280546104b9906107d8565b90600052602060002090601f0160209004810192826104db5760008555610522565b82601f106104f457805160ff1916838001178555610522565b82800160010185558215610522579182015b82811115610521578251825591602001919060010190610506565b5b50905061052f91906105b9565b5090565b82805461053f906107d8565b90600052602060002090601f01602090048101928261056157600085556105a8565b82601f1061057a57803560ff19168380011785556105a8565b828001600101855582156105a8579182015b828111156105a757823582559160200191906001019061058c565b5b5090506105b591906105b9565b5090565b5b808211156105d25760008160009055506001016105ba565b5090565b60008083601f8401126105e857600080fd5b8235905067ffffffffffffffff81111561060157600080fd5b60208301915083600182028301111561061957600080fd5b9250929050565b60008135905061062f8161084a565b92915050565b6000806020838503121561064857600080fd5b600083013567ffffffffffffffff81111561066257600080fd5b61066e858286016105d6565b92509250509250929050565b60006020828403121561068c57600080fd5b600061069a84828501610620565b91505092915050565b6000806000604084860312156106b857600080fd5b60006106c686828701610620565b935050602084013567ffffffffffffffff8111156106e357600080fd5b6106ef868287016105d6565b92509250509250925092565b6107048161078f565b82525050565b600061071582610773565b61071f818561077e565b935061072f8185602086016107a5565b61073881610839565b840191505092915050565b6000604082019050818103600083015261075d818561070a565b905061076c60208301846106fb565b9392505050565b600081519050919050565b600082825260208201905092915050565b60008115159050919050565b6000819050919050565b60005b838110156107c35780820151818401526020810190506107a8565b838111156107d2576000848401525b50505050565b600060028204905060018216806107f057607f821691505b602082108114156108045761080361080a565b5b50919050565b7f4e487b7100000000000000000000000000000000000000000000000000000000600052602260045260246000fd5b6000601f19601f8301169050919050565b6108538161079b565b811461085e57600080fd5b5056fea2646970667358221220fcddc18be7b82b1048f246953d82392ad54ea06a573582a8d881e4c20b463e9a64736f6c63430008030033",
  "immutableReferences": {},
  "source": "// SPDX-License-Identifier: MIT\npragma solidity ^0.8.3;\n\ncontract TodoList{\n    struct Todo{\n        string text;\n        bool compleated;\n    }\n    \n    Todo[] public todos;\n\n    function create(string calldata _text) external {\n        todos.push(Todo({\n            text:_text,\n            compleated:false\n        }));\n    }\n    function updateText(uint _index, string calldata _text) external {\n        todos[_index].text = _text;\n    }\n    function get(uint _index) external view returns(string memory,bool){\n        Todo storage todo = todos[_index];\n        return (todo.text,todo.compleated);\n    }\n    function toggleComplete(uint _index) external {\n        Todo storage todo = todos[_index];\n        if (todo.compleated==false){\n            todo.compleated=true;\n        }else{\n            todo.compleated = false;\n        }\n    }\n\n}\n",
  "sourcePath": "/home/anish/Documents/experiments/blockchain/todo/truffle/contracts/Todo.sol",
  "compiler": {
    "name": "solc",
    "version": "0.8.3+commit.8d00100c.Emscripten.clang"
  },
  "schemaVersion": "3.4.10",
  "updatedAt": "2022-12-01T06:08:46.709Z",
  "devdoc": {
    "kind": "dev",
    "methods": {},
    "version": 1
  },
  "userdoc": {
    "kind": "user",
    "methods": {},
    "version": 1
  }
}